{
  "contractName": "Voting",
  "abi": [
    {
      "anonymous": false,
      "inputs": [
        {
          "indexed": true,
          "internalType": "address",
          "name": "previousOwner",
          "type": "address"
        },
        {
          "indexed": true,
          "internalType": "address",
          "name": "newOwner",
          "type": "address"
        }
      ],
      "name": "OwnershipTransferred",
      "type": "event"
    },
    {
      "anonymous": false,
      "inputs": [
        {
          "indexed": false,
          "internalType": "uint256",
          "name": "proposalId",
          "type": "uint256"
        }
      ],
      "name": "ProposalRegistered",
      "type": "event"
    },
    {
      "anonymous": false,
      "inputs": [],
      "name": "ProposalsRegistrationEnded",
      "type": "event"
    },
    {
      "anonymous": false,
      "inputs": [],
      "name": "ProposalsRegistrationStarted",
      "type": "event"
    },
    {
      "anonymous": false,
      "inputs": [
        {
          "indexed": false,
          "internalType": "address",
          "name": "voter",
          "type": "address"
        },
        {
          "indexed": false,
          "internalType": "uint256",
          "name": "proposalId",
          "type": "uint256"
        }
      ],
      "name": "Voted",
      "type": "event"
    },
    {
      "anonymous": false,
      "inputs": [
        {
          "indexed": false,
          "internalType": "address",
          "name": "voterAddress",
          "type": "address"
        }
      ],
      "name": "VoterRegistered",
      "type": "event"
    },
    {
      "anonymous": false,
      "inputs": [],
      "name": "VotesTallied",
      "type": "event"
    },
    {
      "anonymous": false,
      "inputs": [],
      "name": "VotingSessionEnded",
      "type": "event"
    },
    {
      "anonymous": false,
      "inputs": [],
      "name": "VotingSessionStarted",
      "type": "event"
    },
    {
      "anonymous": false,
      "inputs": [
        {
          "indexed": false,
          "internalType": "enum Voting.WorkflowStatus",
          "name": "previousStatus",
          "type": "uint8"
        },
        {
          "indexed": false,
          "internalType": "enum Voting.WorkflowStatus",
          "name": "newStatus",
          "type": "uint8"
        }
      ],
      "name": "WorkflowStatusChange",
      "type": "event"
    },
    {
      "inputs": [],
      "name": "current_status",
      "outputs": [
        {
          "internalType": "enum Voting.WorkflowStatus",
          "name": "",
          "type": "uint8"
        }
      ],
      "stateMutability": "view",
      "type": "function",
      "constant": true
    },
    {
      "inputs": [],
      "name": "owner",
      "outputs": [
        {
          "internalType": "address",
          "name": "",
          "type": "address"
        }
      ],
      "stateMutability": "view",
      "type": "function",
      "constant": true
    },
    {
      "inputs": [
        {
          "internalType": "uint256",
          "name": "",
          "type": "uint256"
        }
      ],
      "name": "proposals",
      "outputs": [
        {
          "internalType": "string",
          "name": "description",
          "type": "string"
        },
        {
          "internalType": "uint256",
          "name": "voteCount",
          "type": "uint256"
        }
      ],
      "stateMutability": "view",
      "type": "function",
      "constant": true
    },
    {
      "inputs": [],
      "name": "renounceOwnership",
      "outputs": [],
      "stateMutability": "nonpayable",
      "type": "function"
    },
    {
      "inputs": [
        {
          "internalType": "address",
          "name": "newOwner",
          "type": "address"
        }
      ],
      "name": "transferOwnership",
      "outputs": [],
      "stateMutability": "nonpayable",
      "type": "function"
    },
    {
      "inputs": [
        {
          "internalType": "address",
          "name": "",
          "type": "address"
        }
      ],
      "name": "whitelist",
      "outputs": [
        {
          "internalType": "bool",
          "name": "isRegistered",
          "type": "bool"
        },
        {
          "internalType": "bool",
          "name": "hasVoted",
          "type": "bool"
        },
        {
          "internalType": "uint256",
          "name": "votedProposalId",
          "type": "uint256"
        }
      ],
      "stateMutability": "view",
      "type": "function",
      "constant": true
    },
    {
      "inputs": [],
      "name": "winningProposalId",
      "outputs": [
        {
          "internalType": "uint256",
          "name": "",
          "type": "uint256"
        }
      ],
      "stateMutability": "view",
      "type": "function",
      "constant": true
    },
    {
      "inputs": [],
      "name": "get_proposals_length",
      "outputs": [
        {
          "internalType": "uint256",
          "name": "",
          "type": "uint256"
        }
      ],
      "stateMutability": "view",
      "type": "function",
      "constant": true
    },
    {
      "inputs": [
        {
          "internalType": "uint256",
          "name": "index",
          "type": "uint256"
        }
      ],
      "name": "get_proposal_description",
      "outputs": [
        {
          "internalType": "string",
          "name": "",
          "type": "string"
        }
      ],
      "stateMutability": "view",
      "type": "function",
      "constant": true
    },
    {
      "inputs": [
        {
          "internalType": "uint256",
          "name": "index",
          "type": "uint256"
        }
      ],
      "name": "get_proposal_voteCount",
      "outputs": [
        {
          "internalType": "uint256",
          "name": "",
          "type": "uint256"
        }
      ],
      "stateMutability": "view",
      "type": "function",
      "constant": true
    },
    {
      "inputs": [
        {
          "internalType": "address",
          "name": "compte",
          "type": "address"
        }
      ],
      "name": "register_voter",
      "outputs": [],
      "stateMutability": "nonpayable",
      "type": "function"
    },
    {
      "inputs": [],
      "name": "start_proposals_registration",
      "outputs": [],
      "stateMutability": "nonpayable",
      "type": "function"
    },
    {
      "inputs": [
        {
          "internalType": "string",
          "name": "description",
          "type": "string"
        }
      ],
      "name": "register_proposal",
      "outputs": [],
      "stateMutability": "nonpayable",
      "type": "function"
    },
    {
      "inputs": [],
      "name": "end_proposals_registration",
      "outputs": [],
      "stateMutability": "nonpayable",
      "type": "function"
    },
    {
      "inputs": [],
      "name": "start_voting_session",
      "outputs": [],
      "stateMutability": "nonpayable",
      "type": "function"
    },
    {
      "inputs": [
        {
          "internalType": "uint256",
          "name": "proposalId",
          "type": "uint256"
        }
      ],
      "name": "send_vote",
      "outputs": [],
      "stateMutability": "nonpayable",
      "type": "function"
    },
    {
      "inputs": [],
      "name": "end_voting_session",
      "outputs": [],
      "stateMutability": "nonpayable",
      "type": "function"
    },
    {
      "inputs": [],
      "name": "comptabiliser",
      "outputs": [],
      "stateMutability": "nonpayable",
      "type": "function"
    }
  ],
  "bytecode": "0x60806040526000600460006101000a81548160ff0219169083600581111561002357fe5b021790555034801561003457600080fd5b5060006100456100e860201b60201c565b9050806000806101000a81548173ffffffffffffffffffffffffffffffffffffffff021916908373ffffffffffffffffffffffffffffffffffffffff1602179055508073ffffffffffffffffffffffffffffffffffffffff16600073ffffffffffffffffffffffffffffffffffffffff167f8be0079c531659141344cd1fd0a4f28419497f9722a3daafe3b4186f6b6457e060405160405180910390a3506100f0565b600033905090565b612245806100ff6000396000f3fe608060405234801561001057600080fd5b50600436106101165760003560e01c806385a36d29116100a2578063a796602b11610071578063a796602b146104ff578063c64963c514610509578063ddf0709514610527578063e050b0d014610531578063f2fde38b1461053b57610116565b806385a36d291461035e5780638da5cb5b146104055780639b19251a1461044f5780639c1c67fa146104bd57610116565b80634c8336ca116100e95780634c8336ca146102d05780634f2c51b9146102da5780636d807d6b1461031e5780636ff5e8e614610328578063715018a61461035457610116565b8063013cf08b1461011b57806306934eae146101c957806313e0d619146101e757806338498465146102a2575b600080fd5b6101476004803603602081101561013157600080fd5b810190808035906020019092919050505061057f565b6040518080602001838152602001828103825284818151815260200191508051906020019080838360005b8381101561018d578082015181840152602081019050610172565b50505050905090810190601f1680156101ba5780820380516001836020036101000a031916815260200191505b50935050505060405180910390f35b6101d1610648565b6040518082815260200191505060405180910390f35b6102a0600480360360208110156101fd57600080fd5b810190808035906020019064010000000081111561021a57600080fd5b82018360208201111561022c57600080fd5b8035906020019184600183028401116401000000008311171561024e57600080fd5b91908080601f016020809104026020016040519081016040528093929190818152602001838380828437600081840152601f19601f820116905080830192505050505050509192919290505050610655565b005b6102ce600480360360208110156102b857600080fd5b8101908080359060200190929190505050610865565b005b6102d8610c70565b005b61031c600480360360208110156102f057600080fd5b81019080803573ffffffffffffffffffffffffffffffffffffffff169060200190929190505050610f30565b005b610326611272565b005b610330611484565b6040518082600581111561034057fe5b60ff16815260200191505060405180910390f35b61035c611497565b005b61038a6004803603602081101561037457600080fd5b810190808035906020019092919050505061161f565b6040518080602001828103825283818151815260200191508051906020019080838360005b838110156103ca5780820151818401526020810190506103af565b50505050905090810190601f1680156103f75780820380516001836020036101000a031916815260200191505b509250505060405180910390f35b61040d611759565b604051808273ffffffffffffffffffffffffffffffffffffffff1673ffffffffffffffffffffffffffffffffffffffff16815260200191505060405180910390f35b6104916004803603602081101561046557600080fd5b81019080803573ffffffffffffffffffffffffffffffffffffffff169060200190929190505050611782565b604051808415151515815260200183151515158152602001828152602001935050505060405180910390f35b6104e9600480360360208110156104d357600080fd5b81019080803590602001909291905050506117c6565b6040518082815260200191505060405180910390f35b610507611868565b005b610511611a7b565b6040518082815260200191505060405180910390f35b61052f611a81565b005b610539611c94565b005b61057d6004803603602081101561055157600080fd5b81019080803573ffffffffffffffffffffffffffffffffffffffff169060200190929190505050611ea7565b005b6003818154811061058c57fe5b9060005260206000209060020201600091509050806000018054600181600116156101000203166002900480601f0160208091040260200160405190810160405280929190818152602001828054600181600116156101000203166002900480156106385780601f1061060d57610100808354040283529160200191610638565b820191906000526020600020905b81548152906001019060200180831161061b57829003601f168201915b5050505050908060010154905082565b6000600380549050905090565b60011515600160003373ffffffffffffffffffffffffffffffffffffffff1673ffffffffffffffffffffffffffffffffffffffff16815260200190815260200160002060000160009054906101000a900460ff1615151461071e576040517f08c379a000000000000000000000000000000000000000000000000000000000815260040180806020018281038252601b8152602001807f5574696c69736174657572206e6f6e20656e72656769737472c3a9000000000081525060200191505060405180910390fd5b6001600581111561072b57fe5b600460009054906101000a900460ff16600581111561074657fe5b146107b9576040517f08c379a000000000000000000000000000000000000000000000000000000000815260040180806020018281038252601c8152602001807f4365206e2765737420706173206c6520626f6e206d6f6d656e7420210000000081525060200191505060405180910390fd5b60036040518060400160405280838152602001600081525090806001815401808255809150506001900390600052602060002090600202016000909190919091506000820151816000019080519060200190610816929190612144565b506020820151816001015550507f92e393e9b54e2f801d3ea4beb0c5e71a21cc34a5d34b77d0fb8a3aa1650dc18f6001600380549050036040518082815260200191505060405180910390a150565b60011515600160003373ffffffffffffffffffffffffffffffffffffffff1673ffffffffffffffffffffffffffffffffffffffff16815260200190815260200160002060000160009054906101000a900460ff1615151461092e576040517f08c379a000000000000000000000000000000000000000000000000000000000815260040180806020018281038252601b8152602001807f5574696c69736174657572206e6f6e20656e72656769737472c3a9000000000081525060200191505060405180910390fd5b6003600581111561093b57fe5b600460009054906101000a900460ff16600581111561095657fe5b146109c9576040517f08c379a000000000000000000000000000000000000000000000000000000000815260040180806020018281038252601c8152602001807f4365206e2765737420706173206c6520626f6e206d6f6d656e7420210000000081525060200191505060405180910390fd5b60011515600160003373ffffffffffffffffffffffffffffffffffffffff1673ffffffffffffffffffffffffffffffffffffffff16815260200190815260200160002060000160019054906101000a900460ff1615151415610a93576040517f08c379a000000000000000000000000000000000000000000000000000000000815260040180806020018281038252600b8152602001807f44656ac3a020766f74c3a900000000000000000000000000000000000000000081525060200191505060405180910390fd5b6003805490508110610b0d576040517f08c379a00000000000000000000000000000000000000000000000000000000081526004018080602001828103825260148152602001807f50726f706f736974696f6e20696e636f6e6e756500000000000000000000000081525060200191505060405180910390fd5b610b3f600160038381548110610b1f57fe5b9060005260206000209060020201600101546120b490919063ffffffff16565b60038281548110610b4c57fe5b90600052602060002090600202016001018190555080600160003373ffffffffffffffffffffffffffffffffffffffff1673ffffffffffffffffffffffffffffffffffffffff1681526020019081526020016000206001018190555060018060003373ffffffffffffffffffffffffffffffffffffffff1673ffffffffffffffffffffffffffffffffffffffff16815260200190815260200160002060000160016101000a81548160ff0219169083151502179055507f4d99b957a2bc29a30ebd96a7be8e68fe50a3c701db28a91436490b7d53870ca43382604051808373ffffffffffffffffffffffffffffffffffffffff1673ffffffffffffffffffffffffffffffffffffffff1681526020018281526020019250505060405180910390a150565b610c7861213c565b73ffffffffffffffffffffffffffffffffffffffff166000809054906101000a900473ffffffffffffffffffffffffffffffffffffffff1673ffffffffffffffffffffffffffffffffffffffff1614610d39576040517f08c379a00000000000000000000000000000000000000000000000000000000081526004018080602001828103825260208152602001807f4f776e61626c653a2063616c6c6572206973206e6f7420746865206f776e657281525060200191505060405180910390fd5b60046005811115610d4657fe5b600460009054906101000a900460ff166005811115610d6157fe5b14610dd4576040517f08c379a000000000000000000000000000000000000000000000000000000000815260040180806020018281038252601c8152602001807f4365206e2765737420706173206c6520626f6e206d6f6d656e7420210000000081525060200191505060405180910390fd5b600060038054905011610de357fe5b60006003600081548110610df357fe5b906000526020600020906002020160010154905060006002819055506000600190505b600380549050811015610e7f578160038281548110610e3157fe5b9060005260206000209060020201600101541115610e725760038181548110610e5657fe5b9060005260206000209060020201600101549150806002819055505b8080600101915050610e16565b506005600460006101000a81548160ff02191690836005811115610e9f57fe5b02179055507f0a97a4ee45751e2abf3e4fc8946939630b11b371ea8ae39ccdc3056e98f5cc3f6004600560405180836005811115610ed957fe5b60ff168152602001826005811115610eed57fe5b60ff1681526020019250505060405180910390a17f0e5e95ff8725ab3e7a4b6b59998a4c344c2aa8d1485f5e60cb7f337768e6134760405160405180910390a150565b610f3861213c565b73ffffffffffffffffffffffffffffffffffffffff166000809054906101000a900473ffffffffffffffffffffffffffffffffffffffff1673ffffffffffffffffffffffffffffffffffffffff1614610ff9576040517f08c379a00000000000000000000000000000000000000000000000000000000081526004018080602001828103825260208152602001807f4f776e61626c653a2063616c6c6572206973206e6f7420746865206f776e657281525060200191505060405180910390fd5b6000600581111561100657fe5b600460009054906101000a900460ff16600581111561102157fe5b14611094576040517f08c379a000000000000000000000000000000000000000000000000000000000815260040180806020018281038252601c8152602001807f4365206e2765737420706173206c6520626f6e206d6f6d656e7420210000000081525060200191505060405180910390fd5b60011515600160008373ffffffffffffffffffffffffffffffffffffffff1673ffffffffffffffffffffffffffffffffffffffff16815260200190815260200160002060000160009054906101000a900460ff161515141561115e576040517f08c379a000000000000000000000000000000000000000000000000000000000815260040180806020018281038252600c8152602001807f44656a6120696e7363726974000000000000000000000000000000000000000081525060200191505060405180910390fd5b60405180606001604052806001151581526020016000151581526020016000815250600160008373ffffffffffffffffffffffffffffffffffffffff1673ffffffffffffffffffffffffffffffffffffffff16815260200190815260200160002060008201518160000160006101000a81548160ff02191690831515021790555060208201518160000160016101000a81548160ff021916908315150217905550604082015181600101559050507fb6be2187d059cc2a55fe29e0e503b566e1e0f8c8780096e185429350acffd3dd81604051808273ffffffffffffffffffffffffffffffffffffffff1673ffffffffffffffffffffffffffffffffffffffff16815260200191505060405180910390a150565b61127a61213c565b73ffffffffffffffffffffffffffffffffffffffff166000809054906101000a900473ffffffffffffffffffffffffffffffffffffffff1673ffffffffffffffffffffffffffffffffffffffff161461133b576040517f08c379a00000000000000000000000000000000000000000000000000000000081526004018080602001828103825260208152602001807f4f776e61626c653a2063616c6c6572206973206e6f7420746865206f776e657281525060200191505060405180910390fd5b6003600581111561134857fe5b600460009054906101000a900460ff16600581111561136357fe5b146113d6576040517f08c379a000000000000000000000000000000000000000000000000000000000815260040180806020018281038252601c8152602001807f4365206e2765737420706173206c6520626f6e206d6f6d656e7420210000000081525060200191505060405180910390fd5b60048060006101000a81548160ff021916908360058111156113f457fe5b02179055507f0a97a4ee45751e2abf3e4fc8946939630b11b371ea8ae39ccdc3056e98f5cc3f600360046040518083600581111561142e57fe5b60ff16815260200182600581111561144257fe5b60ff1681526020019250505060405180910390a17fc379d349a6301baf50fb2f98d829f4ae10b1cdb7c66f4e4d8117302df7b8cd4c60405160405180910390a1565b600460009054906101000a900460ff1681565b61149f61213c565b73ffffffffffffffffffffffffffffffffffffffff166000809054906101000a900473ffffffffffffffffffffffffffffffffffffffff1673ffffffffffffffffffffffffffffffffffffffff1614611560576040517f08c379a00000000000000000000000000000000000000000000000000000000081526004018080602001828103825260208152602001807f4f776e61626c653a2063616c6c6572206973206e6f7420746865206f776e657281525060200191505060405180910390fd5b600073ffffffffffffffffffffffffffffffffffffffff166000809054906101000a900473ffffffffffffffffffffffffffffffffffffffff1673ffffffffffffffffffffffffffffffffffffffff167f8be0079c531659141344cd1fd0a4f28419497f9722a3daafe3b4186f6b6457e060405160405180910390a360008060006101000a81548173ffffffffffffffffffffffffffffffffffffffff021916908373ffffffffffffffffffffffffffffffffffffffff160217905550565b6060600380549050821061169b576040517f08c379a00000000000000000000000000000000000000000000000000000000081526004018080602001828103825260108152602001807f696e64657820696e636f72726563742e0000000000000000000000000000000081525060200191505060405180910390fd5b600382815481106116a857fe5b90600052602060002090600202016000018054600181600116156101000203166002900480601f01602080910402602001604051908101604052809291908181526020018280546001816001161561010002031660029004801561174d5780601f106117225761010080835404028352916020019161174d565b820191906000526020600020905b81548152906001019060200180831161173057829003601f168201915b50505050509050919050565b60008060009054906101000a900473ffffffffffffffffffffffffffffffffffffffff16905090565b60016020528060005260406000206000915090508060000160009054906101000a900460ff16908060000160019054906101000a900460ff16908060010154905083565b60006003805490508210611842576040517f08c379a00000000000000000000000000000000000000000000000000000000081526004018080602001828103825260108152602001807f696e64657820696e636f72726563742e0000000000000000000000000000000081525060200191505060405180910390fd5b6003828154811061184f57fe5b9060005260206000209060020201600101549050919050565b61187061213c565b73ffffffffffffffffffffffffffffffffffffffff166000809054906101000a900473ffffffffffffffffffffffffffffffffffffffff1673ffffffffffffffffffffffffffffffffffffffff1614611931576040517f08c379a00000000000000000000000000000000000000000000000000000000081526004018080602001828103825260208152602001807f4f776e61626c653a2063616c6c6572206973206e6f7420746865206f776e657281525060200191505060405180910390fd5b6000600581111561193e57fe5b600460009054906101000a900460ff16600581111561195957fe5b146119cc576040517f08c379a000000000000000000000000000000000000000000000000000000000815260040180806020018281038252601c8152602001807f4365206e2765737420706173206c6520626f6e206d6f6d656e7420210000000081525060200191505060405180910390fd5b6001600460006101000a81548160ff021916908360058111156119eb57fe5b02179055507f0a97a4ee45751e2abf3e4fc8946939630b11b371ea8ae39ccdc3056e98f5cc3f6000600160405180836005811115611a2557fe5b60ff168152602001826005811115611a3957fe5b60ff1681526020019250505060405180910390a17f344c25562921d075a298d34b6dd1fd00d36ff293974539dfd4a8c625d9f0064c60405160405180910390a1565b60025481565b611a8961213c565b73ffffffffffffffffffffffffffffffffffffffff166000809054906101000a900473ffffffffffffffffffffffffffffffffffffffff1673ffffffffffffffffffffffffffffffffffffffff1614611b4a576040517f08c379a00000000000000000000000000000000000000000000000000000000081526004018080602001828103825260208152602001807f4f776e61626c653a2063616c6c6572206973206e6f7420746865206f776e657281525060200191505060405180910390fd5b60016005811115611b5757fe5b600460009054906101000a900460ff166005811115611b7257fe5b14611be5576040517f08c379a000000000000000000000000000000000000000000000000000000000815260040180806020018281038252601c8152602001807f4365206e2765737420706173206c6520626f6e206d6f6d656e7420210000000081525060200191505060405180910390fd5b6002600460006101000a81548160ff02191690836005811115611c0457fe5b02179055507f0a97a4ee45751e2abf3e4fc8946939630b11b371ea8ae39ccdc3056e98f5cc3f6001600260405180836005811115611c3e57fe5b60ff168152602001826005811115611c5257fe5b60ff1681526020019250505060405180910390a17f240cb87b2e4df4c318e72bd714d45a9cad60249e883ff56b1fffd83a4595a8fa60405160405180910390a1565b611c9c61213c565b73ffffffffffffffffffffffffffffffffffffffff166000809054906101000a900473ffffffffffffffffffffffffffffffffffffffff1673ffffffffffffffffffffffffffffffffffffffff1614611d5d576040517f08c379a00000000000000000000000000000000000000000000000000000000081526004018080602001828103825260208152602001807f4f776e61626c653a2063616c6c6572206973206e6f7420746865206f776e657281525060200191505060405180910390fd5b60026005811115611d6a57fe5b600460009054906101000a900460ff166005811115611d8557fe5b14611df8576040517f08c379a000000000000000000000000000000000000000000000000000000000815260040180806020018281038252601c8152602001807f4365206e2765737420706173206c6520626f6e206d6f6d656e7420210000000081525060200191505060405180910390fd5b6003600460006101000a81548160ff02191690836005811115611e1757fe5b02179055507f0a97a4ee45751e2abf3e4fc8946939630b11b371ea8ae39ccdc3056e98f5cc3f6002600360405180836005811115611e5157fe5b60ff168152602001826005811115611e6557fe5b60ff1681526020019250505060405180910390a17f1b8e19a458c1bcd88553332c518cc5c4e2d5793e712ee766d4f1c14f672ef1f560405160405180910390a1565b611eaf61213c565b73ffffffffffffffffffffffffffffffffffffffff166000809054906101000a900473ffffffffffffffffffffffffffffffffffffffff1673ffffffffffffffffffffffffffffffffffffffff1614611f70576040517f08c379a00000000000000000000000000000000000000000000000000000000081526004018080602001828103825260208152602001807f4f776e61626c653a2063616c6c6572206973206e6f7420746865206f776e657281525060200191505060405180910390fd5b600073ffffffffffffffffffffffffffffffffffffffff168173ffffffffffffffffffffffffffffffffffffffff161415611ff6576040517f08c379a00000000000000000000000000000000000000000000000000000000081526004018080602001828103825260268152602001806121ea6026913960400191505060405180910390fd5b8073ffffffffffffffffffffffffffffffffffffffff166000809054906101000a900473ffffffffffffffffffffffffffffffffffffffff1673ffffffffffffffffffffffffffffffffffffffff167f8be0079c531659141344cd1fd0a4f28419497f9722a3daafe3b4186f6b6457e060405160405180910390a3806000806101000a81548173ffffffffffffffffffffffffffffffffffffffff021916908373ffffffffffffffffffffffffffffffffffffffff16021790555050565b600080828401905083811015612132576040517f08c379a000000000000000000000000000000000000000000000000000000000815260040180806020018281038252601b8152602001807f536166654d6174683a206164646974696f6e206f766572666c6f77000000000081525060200191505060405180910390fd5b8091505092915050565b600033905090565b828054600181600116156101000203166002900490600052602060002090601f016020900481019282601f1061218557805160ff19168380011785556121b3565b828001600101855582156121b3579182015b828111156121b2578251825591602001919060010190612197565b5b5090506121c091906121c4565b5090565b6121e691905b808211156121e25760008160009055506001016121ca565b5090565b9056fe4f776e61626c653a206e6577206f776e657220697320746865207a65726f2061646472657373a264697066735822122019c1ccede783ef3d308056a92af63520b518bdb408d429ba36646d09d58b059d64736f6c634300060b0033",
  "immutableReferences": {},
  "source": "// SPDX-License-Identifier: MIT\n\npragma solidity 0.6.11;\n\n// import \"https://github.com/OpenZeppelin/openzeppelin-contracts/contracts/access/Ownable.sol\";\n// import \"https://github.com/OpenZeppelin/openzeppelin-contracts/contracts/math/SafeMath.sol\";\n\nimport \"@openzeppelin/contracts/access/Ownable.sol\";\nimport \"@openzeppelin/contracts/math/SafeMath.sol\";\n\ncontract Voting is Ownable {\n    using SafeMath for uint;\n    \n    event VoterRegistered(address voterAddress);\n    event ProposalsRegistrationStarted();\n    event ProposalsRegistrationEnded();\n    event ProposalRegistered(uint proposalId);\n    event VotingSessionStarted();\n    event VotingSessionEnded();\n    event Voted (address voter, uint proposalId);\n    event VotesTallied();\n    event WorkflowStatusChange(WorkflowStatus previousStatus, WorkflowStatus newStatus);\n\n    struct Voter {\n      bool isRegistered;\n      bool hasVoted;\n      uint votedProposalId;\n    }\n\n    struct Proposal {\n      string description;\n      uint voteCount;\n    }\n\n    enum WorkflowStatus {\n      RegisteringVoters,\n      ProposalsRegistrationStarted,\n      ProposalsRegistrationEnded,\n      VotingSessionStarted,\n      VotingSessionEnded,\n      VotesTallied\n    }\n\n    mapping(address => Voter) public whitelist;\n    uint public winningProposalId;\n    Proposal[] public proposals;\n    WorkflowStatus public current_status = WorkflowStatus.RegisteringVoters;\n\n\n    //  TypeError: This type is only supported in ABIEncoderV2. Use \"pragma experimental ABIEncoderV2;\" to enable the feature.\n    function get_proposals_length() external view returns (uint) {\n        return proposals.length;\n    }\n\n    function get_proposal_description(uint index) external view returns (string memory) {\n       require(index<proposals.length,\"index incorrect.\");\n       return proposals[index].description;\n    }\n\n    function get_proposal_voteCount(uint index) external view returns (uint) {\n       require(index<proposals.length,\"index incorrect.\");\n       return proposals[index].voteCount;\n    }\n    \n    function register_voter(address compte) public onlyOwner {\n        require(current_status==WorkflowStatus.RegisteringVoters,\"Ce n'est pas le bon moment !\");\n        require(whitelist[compte].isRegistered!=true,\"Deja inscrit\");       \n        \n        whitelist[compte] = Voter(true,false,0);    \n        emit VoterRegistered(compte);\n    }\n    \n    function start_proposals_registration() public onlyOwner {\n        require(current_status==WorkflowStatus.RegisteringVoters,\"Ce n'est pas le bon moment !\");\n        \n        current_status = WorkflowStatus.ProposalsRegistrationStarted;\n        emit WorkflowStatusChange(WorkflowStatus.RegisteringVoters,WorkflowStatus.ProposalsRegistrationStarted);\n        emit ProposalsRegistrationStarted();\n    }\n    \n    // Je pars du principe qu'un utilisateur peut proposer autant de propositions qu'il le souhaite ?\n    function register_proposal(string memory description) public\n    {\n        require(whitelist[msg.sender].isRegistered==true,\"Utilisateur non enregistr\");     \n        require(current_status==WorkflowStatus.ProposalsRegistrationStarted,\"Ce n'est pas le bon moment !\");\n\n        proposals.push( Proposal(description,0) );\n        emit ProposalRegistered(proposals.length-1);\n    }\n\n    function end_proposals_registration() public onlyOwner {\n        require(current_status==WorkflowStatus.ProposalsRegistrationStarted,\"Ce n'est pas le bon moment !\");\n        \n        current_status = WorkflowStatus.ProposalsRegistrationEnded;\n        emit WorkflowStatusChange(WorkflowStatus.ProposalsRegistrationStarted,WorkflowStatus.ProposalsRegistrationEnded);\n        emit ProposalsRegistrationEnded();\n    }\n    \n    function start_voting_session() public onlyOwner {\n        require(current_status==WorkflowStatus.ProposalsRegistrationEnded,\"Ce n'est pas le bon moment !\");\n        \n        current_status = WorkflowStatus.VotingSessionStarted;\n        emit WorkflowStatusChange(WorkflowStatus.ProposalsRegistrationEnded,WorkflowStatus.VotingSessionStarted);\n        emit VotingSessionStarted();\n    }\n    \n    function send_vote(uint proposalId) public  {\n        require(whitelist[msg.sender].isRegistered==true,\"Utilisateur non enregistr\");\n        require(current_status==WorkflowStatus.VotingSessionStarted,\"Ce n'est pas le bon moment !\");\n        require(whitelist[msg.sender].hasVoted!=true,\"Dej vot\");\n        require(proposalId<proposals.length,\"Proposition inconnue\");\n        \n        proposals[proposalId].voteCount = proposals[proposalId].voteCount.add(1);\n        \n        whitelist[msg.sender].votedProposalId = proposalId;\n        whitelist[msg.sender].hasVoted=true;\n        \n        emit Voted (msg.sender, proposalId);\n    }\n    \n    function end_voting_session() public onlyOwner {\n        require(current_status==WorkflowStatus.VotingSessionStarted,\"Ce n'est pas le bon moment !\");\n        \n        current_status = WorkflowStatus.VotingSessionEnded;\n        emit WorkflowStatusChange(WorkflowStatus.VotingSessionStarted,WorkflowStatus.VotingSessionEnded);\n        emit VotingSessionEnded();\n    }\n    \n    function comptabiliser() public onlyOwner {\n        require(current_status==WorkflowStatus.VotingSessionEnded,\"Ce n'est pas le bon moment !\");\n        \n        assert(proposals.length>0);\n        \n        // Cas non gr: ex aequo\n\n        uint max;    // variable implicitement memory car locale ?\n        max = proposals[0].voteCount;\n        winningProposalId = 0;\n                \n        for (uint i=1;i<proposals.length;i++)\n        {\n            if (proposals[i].voteCount>max)\n            {\n                max = proposals[i].voteCount;\n                winningProposalId = i;\n            }\n        }\n\n        current_status = WorkflowStatus.VotesTallied;\n        emit WorkflowStatusChange(WorkflowStatus.VotingSessionEnded,WorkflowStatus.VotesTallied);\n        emit VotesTallied();\n    }\n}\n",
  "sourcePath": "/home/julien/learning_blockchain/VotingDapp/contracts/Voting.sol",
  "compiler": {
    "name": "solc",
    "version": "0.6.11+commit.5ef660b1.Emscripten.clang"
  },
  "schemaVersion": "3.3.2",
  "updatedAt": "2020-12-11T16:39:04.305Z",
  "networkType": "ethereum",
  "devdoc": {
    "kind": "dev",
    "methods": {
      "owner()": {
        "details": "Returns the address of the current owner."
      },
      "renounceOwnership()": {
        "details": "Leaves the contract without owner. It will not be possible to call `onlyOwner` functions anymore. Can only be called by the current owner. NOTE: Renouncing ownership will leave the contract without an owner, thereby removing any functionality that is only available to the owner."
      },
      "transferOwnership(address)": {
        "details": "Transfers ownership of the contract to a new account (`newOwner`). Can only be called by the current owner."
      }
    },
    "version": 1
  },
  "userdoc": {
    "kind": "user",
    "methods": {},
    "version": 1
  }
}